{
  "contractName": "BlockchainLottery",
  "abi": [
    {
      "inputs": [],
      "stateMutability": "nonpayable",
      "type": "constructor"
    },
    {
      "anonymous": false,
      "inputs": [
        {
          "indexed": false,
          "internalType": "address",
          "name": "",
          "type": "address"
        }
      ],
      "name": "DepositeAmountEvent",
      "type": "event"
    },
    {
      "anonymous": false,
      "inputs": [
        {
          "indexed": true,
          "internalType": "address",
          "name": "previousOwner",
          "type": "address"
        },
        {
          "indexed": true,
          "internalType": "address",
          "name": "newOwner",
          "type": "address"
        }
      ],
      "name": "OwnershipTransferred",
      "type": "event"
    },
    {
      "anonymous": false,
      "inputs": [
        {
          "indexed": false,
          "internalType": "address",
          "name": "",
          "type": "address"
        },
        {
          "indexed": false,
          "internalType": "uint256",
          "name": "",
          "type": "uint256"
        }
      ],
      "name": "Winner",
      "type": "event"
    },
    {
      "inputs": [],
      "name": "USDTAddress",
      "outputs": [
        {
          "internalType": "address",
          "name": "",
          "type": "address"
        }
      ],
      "stateMutability": "view",
      "type": "function"
    },
    {
      "inputs": [
        {
          "internalType": "address",
          "name": "",
          "type": "address"
        }
      ],
      "name": "addressAndTickets",
      "outputs": [
        {
          "internalType": "uint256",
          "name": "",
          "type": "uint256"
        }
      ],
      "stateMutability": "view",
      "type": "function"
    },
    {
      "inputs": [],
      "name": "amount",
      "outputs": [
        {
          "internalType": "uint256",
          "name": "",
          "type": "uint256"
        }
      ],
      "stateMutability": "view",
      "type": "function"
    },
    {
      "inputs": [],
      "name": "fee",
      "outputs": [
        {
          "internalType": "uint256",
          "name": "",
          "type": "uint256"
        }
      ],
      "stateMutability": "view",
      "type": "function"
    },
    {
      "inputs": [],
      "name": "isOn",
      "outputs": [
        {
          "internalType": "bool",
          "name": "",
          "type": "bool"
        }
      ],
      "stateMutability": "view",
      "type": "function"
    },
    {
      "inputs": [],
      "name": "lastWinner",
      "outputs": [
        {
          "internalType": "address",
          "name": "",
          "type": "address"
        }
      ],
      "stateMutability": "view",
      "type": "function"
    },
    {
      "inputs": [],
      "name": "owner",
      "outputs": [
        {
          "internalType": "address",
          "name": "",
          "type": "address"
        }
      ],
      "stateMutability": "view",
      "type": "function"
    },
    {
      "inputs": [],
      "name": "renounceOwnership",
      "outputs": [],
      "stateMutability": "nonpayable",
      "type": "function"
    },
    {
      "inputs": [
        {
          "internalType": "uint256",
          "name": "",
          "type": "uint256"
        }
      ],
      "name": "tickets",
      "outputs": [
        {
          "internalType": "uint256",
          "name": "",
          "type": "uint256"
        }
      ],
      "stateMutability": "view",
      "type": "function"
    },
    {
      "inputs": [
        {
          "internalType": "uint256",
          "name": "",
          "type": "uint256"
        }
      ],
      "name": "ticketsAndAddress",
      "outputs": [
        {
          "internalType": "address",
          "name": "",
          "type": "address"
        }
      ],
      "stateMutability": "view",
      "type": "function"
    },
    {
      "inputs": [
        {
          "internalType": "address",
          "name": "newOwner",
          "type": "address"
        }
      ],
      "name": "transferOwnership",
      "outputs": [],
      "stateMutability": "nonpayable",
      "type": "function"
    },
    {
      "inputs": [
        {
          "internalType": "address",
          "name": "_newAddress",
          "type": "address"
        }
      ],
      "name": "updateUSDTAddress",
      "outputs": [],
      "stateMutability": "nonpayable",
      "type": "function"
    },
    {
      "inputs": [
        {
          "internalType": "uint256",
          "name": "_id",
          "type": "uint256"
        }
      ],
      "name": "getParticipants",
      "outputs": [
        {
          "internalType": "address",
          "name": "",
          "type": "address"
        }
      ],
      "stateMutability": "view",
      "type": "function"
    },
    {
      "inputs": [
        {
          "internalType": "uint256",
          "name": "_fee",
          "type": "uint256"
        }
      ],
      "name": "updateFee",
      "outputs": [],
      "stateMutability": "nonpayable",
      "type": "function"
    },
    {
      "inputs": [
        {
          "internalType": "uint256",
          "name": "_amount",
          "type": "uint256"
        }
      ],
      "name": "setDepositeAmount",
      "outputs": [],
      "stateMutability": "nonpayable",
      "type": "function"
    },
    {
      "inputs": [
        {
          "internalType": "uint256",
          "name": "_num",
          "type": "uint256"
        }
      ],
      "name": "setRandNounce",
      "outputs": [],
      "stateMutability": "nonpayable",
      "type": "function"
    },
    {
      "inputs": [
        {
          "internalType": "address",
          "name": "_account",
          "type": "address"
        }
      ],
      "name": "setFeeAccount",
      "outputs": [],
      "stateMutability": "nonpayable",
      "type": "function"
    },
    {
      "inputs": [],
      "name": "getAllParticipants",
      "outputs": [
        {
          "internalType": "address[]",
          "name": "",
          "type": "address[]"
        }
      ],
      "stateMutability": "view",
      "type": "function"
    },
    {
      "inputs": [],
      "name": "getAllTickets",
      "outputs": [
        {
          "internalType": "uint256[]",
          "name": "",
          "type": "uint256[]"
        }
      ],
      "stateMutability": "view",
      "type": "function"
    },
    {
      "inputs": [
        {
          "internalType": "address",
          "name": "_address",
          "type": "address"
        }
      ],
      "name": "getTicket",
      "outputs": [
        {
          "internalType": "uint256",
          "name": "",
          "type": "uint256"
        }
      ],
      "stateMutability": "view",
      "type": "function"
    },
    {
      "inputs": [
        {
          "internalType": "uint256",
          "name": "_amount",
          "type": "uint256"
        }
      ],
      "name": "depositeUSDT",
      "outputs": [],
      "stateMutability": "nonpayable",
      "type": "function"
    },
    {
      "inputs": [],
      "name": "assignTicket",
      "outputs": [],
      "stateMutability": "nonpayable",
      "type": "function"
    },
    {
      "inputs": [],
      "name": "getLottery",
      "outputs": [],
      "stateMutability": "nonpayable",
      "type": "function"
    }
  ],
  "bytecode": "0x60806040526001600060146101000a81548160ff0219169083151502179055506207a120600355600260045562a037a0600555600060065573c2132d05d31c914a87c6611c10748aeb04b58e8f600c60006101000a81548173ffffffffffffffffffffffffffffffffffffffff021916908373ffffffffffffffffffffffffffffffffffffffff16021790555034801561009857600080fd5b506100b56100aa6100ba60201b60201c565b6100c260201b60201c565b610186565b600033905090565b60008060009054906101000a900473ffffffffffffffffffffffffffffffffffffffff169050816000806101000a81548173ffffffffffffffffffffffffffffffffffffffff021916908373ffffffffffffffffffffffffffffffffffffffff1602179055508173ffffffffffffffffffffffffffffffffffffffff168173ffffffffffffffffffffffffffffffffffffffff167f8be0079c531659141344cd1fd0a4f28419497f9722a3daafe3b4186f6b6457e060405160405180910390a35050565b6122b080620001966000396000f3fe608060405234801561001057600080fd5b506004361061014d5760003560e01c80638da5cb5b116100c3578063cbc2cce71161007c578063cbc2cce714610378578063ddca3f4314610382578063e41f8b53146103a0578063f2fde38b146103bc578063fe188184146103d8578063ff920c74146103f65761014d565b80638da5cb5b146102ca5780639012c4a8146102e85780639660024814610304578063aa8c217c1461030e578063b0e199121461032c578063c1e3bd3e146103485761014d565b80634b023cf8116101155780634b023cf81461020c57806350b4471214610228578063715018a61461025857806371e313bd1461026257806375d60372146102925780637ebaf20a146102ae5761014d565b806303e96fe314610152578063175bbecf14610170578063195ec9ee1461018e57806341779c00146101ac5780634717dea9146101dc575b600080fd5b61015a610414565b6040516101679190611994565b60405180910390f35b61017861046c565b60405161018591906119d1565b60405180910390f35b61019661047f565b6040516101a39190611adc565b60405180910390f35b6101c660048036038101906101c19190611b2f565b61050d565b6040516101d39190611b6b565b60405180910390f35b6101f660048036038101906101f19190611b2f565b610525565b6040516102039190611b6b565b60405180910390f35b61022660048036038101906102219190611b2f565b61056e565b005b610242600480360381019061023d9190611bb2565b61062e565b60405161024f9190611b6b565b60405180910390f35b610260610652565b005b61027c60048036038101906102779190611bb2565b6106da565b6040516102899190611bee565b60405180910390f35b6102ac60048036038101906102a79190611b2f565b61070d565b005b6102c860048036038101906102c39190611bb2565b61085d565b005b6102d2610b5a565b6040516102df9190611bee565b60405180910390f35b61030260048036038101906102fd9190611bb2565b610b83565b005b61030c610c4d565b005b610316610e69565b6040516103239190611b6b565b60405180910390f35b61034660048036038101906103419190611bb2565b610e6f565b005b610362600480360381019061035d9190611bb2565b610ef5565b60405161036f9190611bee565b60405180910390f35b610380610fb9565b005b61038a61143d565b6040516103979190611b6b565b60405180910390f35b6103ba60048036038101906103b59190611bb2565b611443565b005b6103d660048036038101906103d19190611b2f565b6114c9565b005b6103e06115c0565b6040516103ed9190611bee565b60405180910390f35b6103fe6115e6565b60405161040b9190611bee565b60405180910390f35b6060600a80548060200260200160405190810160405280929190818152602001828054801561046257602002820191906000526020600020905b81548152602001906001019080831161044e575b5050505050905090565b600060149054906101000a900460ff1681565b6060600180548060200260200160405190810160405280929190818152602001828054801561050357602002820191906000526020600020905b8160009054906101000a900473ffffffffffffffffffffffffffffffffffffffff1673ffffffffffffffffffffffffffffffffffffffff16815260200190600101908083116104b9575b5050505050905090565b60096020528060005260406000206000915090505481565b6000600960008373ffffffffffffffffffffffffffffffffffffffff1673ffffffffffffffffffffffffffffffffffffffff168152602001908152602001600020549050919050565b61057661160c565b73ffffffffffffffffffffffffffffffffffffffff16610594610b5a565b73ffffffffffffffffffffffffffffffffffffffff16146105ea576040517f08c379a00000000000000000000000000000000000000000000000000000000081526004016105e190611c66565b60405180910390fd5b80600760006101000a81548173ffffffffffffffffffffffffffffffffffffffff021916908373ffffffffffffffffffffffffffffffffffffffff16021790555050565b600a818154811061063e57600080fd5b906000526020600020016000915090505481565b61065a61160c565b73ffffffffffffffffffffffffffffffffffffffff16610678610b5a565b73ffffffffffffffffffffffffffffffffffffffff16146106ce576040517f08c379a00000000000000000000000000000000000000000000000000000000081526004016106c590611c66565b60405180910390fd5b6106d86000611614565b565b60086020528060005260406000206000915054906101000a900473ffffffffffffffffffffffffffffffffffffffff1681565b61071561160c565b73ffffffffffffffffffffffffffffffffffffffff16610733610b5a565b73ffffffffffffffffffffffffffffffffffffffff1614610789576040517f08c379a000000000000000000000000000000000000000000000000000000000815260040161078090611c66565b60405180910390fd5b600c60009054906101000a900473ffffffffffffffffffffffffffffffffffffffff1673ffffffffffffffffffffffffffffffffffffffff168173ffffffffffffffffffffffffffffffffffffffff1603610819576040517f08c379a000000000000000000000000000000000000000000000000000000000815260040161081090611cd2565b60405180910390fd5b80600c60006101000a81548173ffffffffffffffffffffffffffffffffffffffff021916908373ffffffffffffffffffffffffffffffffffffffff16021790555050565b600060149054906101000a900460ff166108ac576040517f08c379a00000000000000000000000000000000000000000000000000000000081526004016108a390611d3e565b60405180910390fd5b60055481146108f0576040517f08c379a00000000000000000000000000000000000000000000000000000000081526004016108e790611dd0565b60405180910390fd5b600c60009054906101000a900473ffffffffffffffffffffffffffffffffffffffff1673ffffffffffffffffffffffffffffffffffffffff166323b872dd33600760009054906101000a900473ffffffffffffffffffffffffffffffffffffffff166003546040518463ffffffff1660e01b815260040161097393929190611df0565b6020604051808303816000875af1158015610992573d6000803e3d6000fd5b505050506040513d601f19601f820116820180604052508101906109b69190611e53565b50600c60009054906101000a900473ffffffffffffffffffffffffffffffffffffffff1673ffffffffffffffffffffffffffffffffffffffff166323b872dd333060035485610a059190611eaf565b6040518463ffffffff1660e01b8152600401610a2393929190611df0565b6020604051808303816000875af1158015610a42573d6000803e3d6000fd5b505050506040513d601f19601f82011682018060405250810190610a669190611e53565b506001339080600181540180825580915050600190039060005260206000200160009091909190916101000a81548173ffffffffffffffffffffffffffffffffffffffff021916908373ffffffffffffffffffffffffffffffffffffffff16021790555080600b60003373ffffffffffffffffffffffffffffffffffffffff1673ffffffffffffffffffffffffffffffffffffffff1681526020019081526020016000206000828254610b199190611ee3565b925050819055507f4f7d5e68462c76e2693e9f56aaa9e9dec62a0558f74233ccc40145e2819dabb133604051610b4f9190611bee565b60405180910390a150565b60008060009054906101000a900473ffffffffffffffffffffffffffffffffffffffff16905090565b610b8b61160c565b73ffffffffffffffffffffffffffffffffffffffff16610ba9610b5a565b73ffffffffffffffffffffffffffffffffffffffff1614610bff576040517f08c379a0000000000000000000000000000000000000000000000000000000008152600401610bf690611c66565b60405180910390fd5b6005548110610c43576040517f08c379a0000000000000000000000000000000000000000000000000000000008152600401610c3a90611f85565b60405180910390fd5b8060038190555050565b610c5561160c565b73ffffffffffffffffffffffffffffffffffffffff16610c73610b5a565b73ffffffffffffffffffffffffffffffffffffffff1614610cc9576040517f08c379a0000000000000000000000000000000000000000000000000000000008152600401610cc090611c66565b60405180910390fd5b60005b600180549050811015610e4c576000610ce36116d8565b905060018281548110610cf957610cf8611fa5565b5b9060005260206000200160009054906101000a900473ffffffffffffffffffffffffffffffffffffffff166008600083815260200190815260200160002060006101000a81548173ffffffffffffffffffffffffffffffffffffffff021916908373ffffffffffffffffffffffffffffffffffffffff160217905550806009600060018581548110610d8e57610d8d611fa5565b5b9060005260206000200160009054906101000a900473ffffffffffffffffffffffffffffffffffffffff1673ffffffffffffffffffffffffffffffffffffffff1673ffffffffffffffffffffffffffffffffffffffff16815260200190815260200160002081905550600a81908060018154018082558091505060019003906000526020600020016000909190919091505560046000815480929190610e3390611fd4565b9190505550508080610e4490611fd4565b915050610ccc565b5060008060146101000a81548160ff021916908315150217905550565b60055481565b610e7761160c565b73ffffffffffffffffffffffffffffffffffffffff16610e95610b5a565b73ffffffffffffffffffffffffffffffffffffffff1614610eeb576040517f08c379a0000000000000000000000000000000000000000000000000000000008152600401610ee290611c66565b60405180910390fd5b8060058190555050565b6000610eff61160c565b73ffffffffffffffffffffffffffffffffffffffff16610f1d610b5a565b73ffffffffffffffffffffffffffffffffffffffff1614610f73576040517f08c379a0000000000000000000000000000000000000000000000000000000008152600401610f6a90611c66565b60405180910390fd5b60018281548110610f8757610f86611fa5565b5b9060005260206000200160009054906101000a900473ffffffffffffffffffffffffffffffffffffffff169050919050565b610fc161160c565b73ffffffffffffffffffffffffffffffffffffffff16610fdf610b5a565b73ffffffffffffffffffffffffffffffffffffffff1614611035576040517f08c379a000000000000000000000000000000000000000000000000000000000815260040161102c90611c66565b60405180910390fd5b6000611090600a80548060200260200160405190810160405280929190818152602001828054801561108657602002820191906000526020600020905b815481526020019060010190808311611072575b5050505050611728565b9050600061109c611880565b90506000600c60009054906101000a900473ffffffffffffffffffffffffffffffffffffffff1673ffffffffffffffffffffffffffffffffffffffff166370a08231306040518263ffffffff1660e01b81526004016110fb9190611bee565b602060405180830381865afa158015611118573d6000803e3d6000fd5b505050506040513d601f19601f8201168201806040525081019061113c9190612031565b9050600c60009054906101000a900473ffffffffffffffffffffffffffffffffffffffff1673ffffffffffffffffffffffffffffffffffffffff1663a9059cbb6008600086868151811061119357611192611fa5565b5b6020026020010151815260200190815260200160002060009054906101000a900473ffffffffffffffffffffffffffffffffffffffff16836040518363ffffffff1660e01b81526004016111e892919061205e565b6020604051808303816000875af1158015611207573d6000803e3d6000fd5b505050506040513d601f19601f8201168201806040525081019061122b9190611e53565b506008600084848151811061124357611242611fa5565b5b6020026020010151815260200190815260200160002060009054906101000a900473ffffffffffffffffffffffffffffffffffffffff16600260006101000a81548173ffffffffffffffffffffffffffffffffffffffff021916908373ffffffffffffffffffffffffffffffffffffffff1602179055507f9c2270628a9b29d30ae96b6c4c14ed646ee134febdce38a5b77f2bde9cea2e20600860008585815181106112f2576112f1611fa5565b5b6020026020010151815260200190815260200160002060009054906101000a900473ffffffffffffffffffffffffffffffffffffffff1684848151811061133c5761133b611fa5565b5b602002602001015160405161135292919061205e565b60405180910390a16000600180549050905060005b818110156113c957600180548061138157611380612087565b5b6001900381819060005260206000200160006101000a81549073ffffffffffffffffffffffffffffffffffffffff0219169055905580806113c190611fd4565b915050611367565b506000600a80549050905060005b8181101561141a57600a8054806113f1576113f0612087565b5b60019003818190600052602060002001600090559055808061141290611fd4565b9150506113d7565b506001600060146101000a81548160ff0219169083151502179055505050505050565b60035481565b61144b61160c565b73ffffffffffffffffffffffffffffffffffffffff16611469610b5a565b73ffffffffffffffffffffffffffffffffffffffff16146114bf576040517f08c379a00000000000000000000000000000000000000000000000000000000081526004016114b690611c66565b60405180910390fd5b8060048190555050565b6114d161160c565b73ffffffffffffffffffffffffffffffffffffffff166114ef610b5a565b73ffffffffffffffffffffffffffffffffffffffff1614611545576040517f08c379a000000000000000000000000000000000000000000000000000000000815260040161153c90611c66565b60405180910390fd5b600073ffffffffffffffffffffffffffffffffffffffff168173ffffffffffffffffffffffffffffffffffffffff16036115b4576040517f08c379a00000000000000000000000000000000000000000000000000000000081526004016115ab90612128565b60405180910390fd5b6115bd81611614565b50565b600260009054906101000a900473ffffffffffffffffffffffffffffffffffffffff1681565b600c60009054906101000a900473ffffffffffffffffffffffffffffffffffffffff1681565b600033905090565b60008060009054906101000a900473ffffffffffffffffffffffffffffffffffffffff169050816000806101000a81548173ffffffffffffffffffffffffffffffffffffffff021916908373ffffffffffffffffffffffffffffffffffffffff1602179055508173ffffffffffffffffffffffffffffffffffffffff168173ffffffffffffffffffffffffffffffffffffffff167f8be0079c531659141344cd1fd0a4f28419497f9722a3daafe3b4186f6b6457e060405160405180910390a35050565b600080620186a0905060008142336004546040516020016116fb939291906121b1565b6040516020818303038152906040528051906020012060001c61171e919061221d565b9050809250505090565b606060008251905060008351905060005b8181101561186f5760006001844288858151811061175a57611759611fa5565b5b602002602001015160405160200161177392919061224e565b6040516020818303038152906040528051906020012060001c611796919061221d565b6117a09190611ee3565b90506000866001836117b29190611eaf565b815181106117c3576117c2611fa5565b5b60200260200101519050866001866117db9190611eaf565b815181106117ec576117eb611fa5565b5b6020026020010151876001846118029190611eaf565b8151811061181357611812611fa5565b5b602002602001018181525050808760018761182e9190611eaf565b8151811061183f5761183e611fa5565b5b6020026020010181815250506001856118589190611eaf565b94505050808061186790611fd4565b915050611739565b506060849050809350505050919050565b600080600a8054905090508042336004546040516020016118a3939291906121b1565b6040516020818303038152906040528051906020012060001c6118c6919061221d565b91505090565b600081519050919050565b600082825260208201905092915050565b6000819050602082019050919050565b6000819050919050565b61190b816118f8565b82525050565b600061191d8383611902565b60208301905092915050565b6000602082019050919050565b6000611941826118cc565b61194b81856118d7565b9350611956836118e8565b8060005b8381101561198757815161196e8882611911565b975061197983611929565b92505060018101905061195a565b5085935050505092915050565b600060208201905081810360008301526119ae8184611936565b905092915050565b60008115159050919050565b6119cb816119b6565b82525050565b60006020820190506119e660008301846119c2565b92915050565b600081519050919050565b600082825260208201905092915050565b6000819050602082019050919050565b600073ffffffffffffffffffffffffffffffffffffffff82169050919050565b6000611a4382611a18565b9050919050565b611a5381611a38565b82525050565b6000611a658383611a4a565b60208301905092915050565b6000602082019050919050565b6000611a89826119ec565b611a9381856119f7565b9350611a9e83611a08565b8060005b83811015611acf578151611ab68882611a59565b9750611ac183611a71565b925050600181019050611aa2565b5085935050505092915050565b60006020820190508181036000830152611af68184611a7e565b905092915050565b600080fd5b611b0c81611a38565b8114611b1757600080fd5b50565b600081359050611b2981611b03565b92915050565b600060208284031215611b4557611b44611afe565b5b6000611b5384828501611b1a565b91505092915050565b611b65816118f8565b82525050565b6000602082019050611b806000830184611b5c565b92915050565b611b8f816118f8565b8114611b9a57600080fd5b50565b600081359050611bac81611b86565b92915050565b600060208284031215611bc857611bc7611afe565b5b6000611bd684828501611b9d565b91505092915050565b611be881611a38565b82525050565b6000602082019050611c036000830184611bdf565b92915050565b600082825260208201905092915050565b7f4f776e61626c653a2063616c6c6572206973206e6f7420746865206f776e6572600082015250565b6000611c50602083611c09565b9150611c5b82611c1a565b602082019050919050565b60006020820190508181036000830152611c7f81611c43565b9050919050565b7f4e455720414444524553532043414e204e4f54204245204f4c44204f4e450000600082015250565b6000611cbc601e83611c09565b9150611cc782611c86565b602082019050919050565b60006020820190508181036000830152611ceb81611caf565b9050919050565b7f4465706f736974657320617265206e6f7720636c6f7365640000000000000000600082015250565b6000611d28601883611c09565b9150611d3382611cf2565b602082019050919050565b60006020820190508181036000830152611d5781611d1b565b9050919050565b7f506c6561736520656e746572207468652073706563696669656420616d6f756e60008201527f74206f6620555344540000000000000000000000000000000000000000000000602082015250565b6000611dba602983611c09565b9150611dc582611d5e565b604082019050919050565b60006020820190508181036000830152611de981611dad565b9050919050565b6000606082019050611e056000830186611bdf565b611e126020830185611bdf565b611e1f6040830184611b5c565b949350505050565b611e30816119b6565b8114611e3b57600080fd5b50565b600081519050611e4d81611e27565b92915050565b600060208284031215611e6957611e68611afe565b5b6000611e7784828501611e3e565b91505092915050565b7f4e487b7100000000000000000000000000000000000000000000000000000000600052601160045260246000fd5b6000611eba826118f8565b9150611ec5836118f8565b925082821015611ed857611ed7611e80565b5b828203905092915050565b6000611eee826118f8565b9150611ef9836118f8565b9250827fffffffffffffffffffffffffffffffffffffffffffffffffffffffffffffffff03821115611f2e57611f2d611e80565b5b828201905092915050565b7f4665652073686f756c64206265206c657373207468656e20616d6f756e740000600082015250565b6000611f6f601e83611c09565b9150611f7a82611f39565b602082019050919050565b60006020820190508181036000830152611f9e81611f62565b9050919050565b7f4e487b7100000000000000000000000000000000000000000000000000000000600052603260045260246000fd5b6000611fdf826118f8565b91507fffffffffffffffffffffffffffffffffffffffffffffffffffffffffffffffff820361201157612010611e80565b5b600182019050919050565b60008151905061202b81611b86565b92915050565b60006020828403121561204757612046611afe565b5b60006120558482850161201c565b91505092915050565b60006040820190506120736000830185611bdf565b6120806020830184611b5c565b9392505050565b7f4e487b7100000000000000000000000000000000000000000000000000000000600052603160045260246000fd5b7f4f776e61626c653a206e6577206f776e657220697320746865207a65726f206160008201527f6464726573730000000000000000000000000000000000000000000000000000602082015250565b6000612112602683611c09565b915061211d826120b6565b604082019050919050565b6000602082019050818103600083015261214181612105565b9050919050565b6000819050919050565b61216361215e826118f8565b612148565b82525050565b60008160601b9050919050565b600061218182612169565b9050919050565b600061219382612176565b9050919050565b6121ab6121a682611a38565b612188565b82525050565b60006121bd8286612152565b6020820191506121cd828561219a565b6014820191506121dd8284612152565b602082019150819050949350505050565b7f4e487b7100000000000000000000000000000000000000000000000000000000600052601260045260246000fd5b6000612228826118f8565b9150612233836118f8565b925082612243576122426121ee565b5b828206905092915050565b600061225a8285612152565b60208201915061226a8284612152565b602082019150819050939250505056fea2646970667358221220f910887a6878f0b35d2601f68c1fe44f931fa7d4bd60bc1877fec350202e728864736f6c634300080e0033",
  "immutableReferences": {},
  "source": "//SPDX-License-Identifier: MIT\n\n// File: @openzeppelin/contracts/utils/Context.sol\n\n\n// OpenZeppelin Contracts v4.4.1 (utils/Context.sol)\n\npragma solidity ^0.8.0;\n\n/**\n * @dev Provides information about the current execution context, including the\n * sender of the transaction and its data. While these are generally available\n * via msg.sender and msg.data, they should not be accessed in such a direct\n * manner, since when dealing with meta-transactions the account sending and\n * paying for execution may not be the actual sender (as far as an application\n * is concerned).\n *\n * This contract is only required for intermediate, library-like contracts.\n */\nabstract contract Context {\n    function _msgSender() internal view virtual returns (address) {\n        return msg.sender;\n    }\n\n    function _msgData() internal view virtual returns (bytes calldata) {\n        return msg.data;\n    }\n}\n\n// File: @openzeppelin/contracts/access/Ownable.sol\n\n\n// OpenZeppelin Contracts v4.4.1 (access/Ownable.sol)\n\npragma solidity ^0.8.0;\n\n\n/**\n * @dev Contract module which provides a basic access control mechanism, where\n * there is an account (an owner) that can be granted exclusive access to\n * specific functions.\n *\n * By default, the owner account will be the one that deploys the contract. This\n * can later be changed with {transferOwnership}.\n *\n * This module is used through inheritance. It will make available the modifier\n * `onlyOwner`, which can be applied to your functions to restrict their use to\n * the owner.\n */\nabstract contract Ownable is Context {\n    address private _owner;\n\n    event OwnershipTransferred(address indexed previousOwner, address indexed newOwner);\n\n    /**\n     * @dev Initializes the contract setting the deployer as the initial owner.\n     */\n    constructor() {\n        _transferOwnership(_msgSender());\n    }\n\n    /**\n     * @dev Returns the address of the current owner.\n     */\n    function owner() public view virtual returns (address) {\n        return _owner;\n    }\n\n    /**\n     * @dev Throws if called by any account other than the owner.\n     */\n    modifier onlyOwner() {\n        require(owner() == _msgSender(), \"Ownable: caller is not the owner\");\n        _;\n    }\n\n    /**\n     * @dev Leaves the contract without owner. It will not be possible to call\n     * `onlyOwner` functions anymore. Can only be called by the current owner.\n     *\n     * NOTE: Renouncing ownership will leave the contract without an owner,\n     * thereby removing any functionality that is only available to the owner.\n     */\n    function renounceOwnership() public virtual onlyOwner {\n        _transferOwnership(address(0));\n    }\n\n    /**\n     * @dev Transfers ownership of the contract to a new account (`newOwner`).\n     * Can only be called by the current owner.\n     */\n    function transferOwnership(address newOwner) public virtual onlyOwner {\n        require(newOwner != address(0), \"Ownable: new owner is the zero address\");\n        _transferOwnership(newOwner);\n    }\n\n    /**\n     * @dev Transfers ownership of the contract to a new account (`newOwner`).\n     * Internal function without access restriction.\n     */\n    function _transferOwnership(address newOwner) internal virtual {\n        address oldOwner = _owner;\n        _owner = newOwner;\n        emit OwnershipTransferred(oldOwner, newOwner);\n    }\n}\n\n// File: @openzeppelin/contracts/token/ERC20/IERC20.sol\n\n\n// OpenZeppelin Contracts (last updated v4.6.0) (token/ERC20/IERC20.sol)\n\npragma solidity ^0.8.0;\n\n/**\n * @dev Interface of the ERC20 standard as defined in the EIP.\n */\ninterface IERC20 {\n    /**\n     * @dev Emitted when `value` tokens are moved from one account (`from`) to\n     * another (`to`).\n     *\n     * Note that `value` may be zero.\n     */\n    event Transfer(address indexed from, address indexed to, uint256 value);\n\n    /**\n     * @dev Emitted when the allowance of a `spender` for an `owner` is set by\n     * a call to {approve}. `value` is the new allowance.\n     */\n    event Approval(address indexed owner, address indexed spender, uint256 value);\n\n    /**\n     * @dev Returns the amount of tokens in existence.\n     */\n    function totalSupply() external view returns (uint256);\n\n    /**\n     * @dev Returns the amount of tokens owned by `account`.\n     */\n    function balanceOf(address account) external view returns (uint256);\n\n    /**\n     * @dev Moves `amount` tokens from the caller's account to `to`.\n     *\n     * Returns a boolean value indicating whether the operation succeeded.\n     *\n     * Emits a {Transfer} event.\n     */\n    function transfer(address to, uint256 amount) external returns (bool);\n\n    /**\n     * @dev Returns the remaining number of tokens that `spender` will be\n     * allowed to spend on behalf of `owner` through {transferFrom}. This is\n     * zero by default.\n     *\n     * This value changes when {approve} or {transferFrom} are called.\n     */\n    function allowance(address owner, address spender) external view returns (uint256);\n\n    /**\n     * @dev Sets `amount` as the allowance of `spender` over the caller's tokens.\n     *\n     * Returns a boolean value indicating whether the operation succeeded.\n     *\n     * IMPORTANT: Beware that changing an allowance with this method brings the risk\n     * that someone may use both the old and the new allowance by unfortunate\n     * transaction ordering. One possible solution to mitigate this race\n     * condition is to first reduce the spender's allowance to 0 and set the\n     * desired value afterwards:\n     * https://github.com/ethereum/EIPs/issues/20#issuecomment-263524729\n     *\n     * Emits an {Approval} event.\n     */\n    function approve(address spender, uint256 amount) external returns (bool);\n\n    /**\n     * @dev Moves `amount` tokens from `from` to `to` using the\n     * allowance mechanism. `amount` is then deducted from the caller's\n     * allowance.\n     *\n     * Returns a boolean value indicating whether the operation succeeded.\n     *\n     * Emits a {Transfer} event.\n     */\n    function transferFrom(\n        address from,\n        address to,\n        uint256 amount\n    ) external returns (bool);\n}\n\n// File: BlockchainLottery.sol\n\n\npragma solidity ^0.8.0;\n\n\n\ncontract BlockchainLottery is Ownable{\n    bool public isOn = true;\n    address[] participants;\n    address public lastWinner;\n    uint public fee = 500000;\n    uint randNonce=2;\n    uint public amount = 10500000;\n    uint lotteryNumberCounter=0;\n    address feeAccount;\n    mapping(uint=>address) public ticketsAndAddress;\n    mapping(address=>uint) public addressAndTickets;\n    uint[] public tickets;\n    mapping(address=>uint) amountOfParticipants;\n    address public USDTAddress = 0xc2132D05D31c914a87C6611C10748AEb04B58e8F; //USDT Address on Polygon\n    event Winner(address,uint);\n    event DepositeAmountEvent(address);\n    constructor(){\n        \n    }\n    function updateUSDTAddress(address _newAddress) public onlyOwner{\n        require(_newAddress!=USDTAddress,\"NEW ADDRESS CAN NOT BE OLD ONE\");\n        USDTAddress = _newAddress;\n    }\n    function getParticipants(uint _id) view public onlyOwner returns(address){\n        return participants[_id];\n    }\n    function updateFee(uint _fee) public onlyOwner{\n        require(_fee<amount,\"Fee should be less then amount\");\n        fee = _fee;\n    }\n    function setDepositeAmount(uint _amount) public onlyOwner{\n        amount = _amount;\n    }\n    function setRandNounce(uint _num) public onlyOwner {\n        randNonce=_num;\n    }\n    function setFeeAccount(address _account) public onlyOwner {\n        feeAccount = _account;\n    }\n\n    function getAllParticipants() view public returns(address[] memory){\n        return participants;\n    }\n    function getAllTickets() public view returns(uint[] memory){\n        return tickets;\n    }\n    function getTicket(address _address) public view returns(uint){\n        return addressAndTickets[_address];\n    }\n\n\n\n    //participants can deposite the amount of USDT\n    function depositeUSDT(uint _amount) public {\n        require(isOn,\"Deposites are now closed\");\n        require(_amount==amount,\"Please enter the specified amount of USDT\");\n        IERC20(USDTAddress).transferFrom(msg.sender, feeAccount, fee);\n        IERC20(USDTAddress).transferFrom(msg.sender, address(this), _amount-fee);\n        participants.push(msg.sender);\n        amountOfParticipants[msg.sender]+=_amount;\n        emit DepositeAmountEvent(msg.sender);\n    }\n\n\n\n    //assign all the participants a random ticket number\n    function assignTicket() public onlyOwner {\n        for(uint i=0;i<participants.length;i++){\n            uint ticket = ticketGenerator();\n            ticketsAndAddress[ticket] = participants[i];\n            addressAndTickets[participants[i]] = ticket;\n            tickets.push(ticket);\n            randNonce++;\n        }\n        isOn=false;\n    }\n\n    // generates the lottery tickets\n    function ticketGenerator() internal view returns(uint){\n        uint _modulus = 100000;\n        uint ticket = uint(keccak256(abi.encodePacked(block.timestamp,msg.sender,randNonce))) % _modulus;\n        return ticket;\n    }\n\n    // opens the lottery for the user \n    function getLottery() public onlyOwner{\n        uint[] memory shuffledTickets = shuffleTickets(tickets);\n        uint WinnerId = LotteryWinner();\n        uint balance = IERC20(USDTAddress).balanceOf(address(this));\n        IERC20(USDTAddress).transfer(ticketsAndAddress[shuffledTickets[WinnerId]],balance);\n        lastWinner = ticketsAndAddress[shuffledTickets[WinnerId]];\n        emit Winner(ticketsAndAddress[shuffledTickets[WinnerId]],shuffledTickets[WinnerId]);\n        uint participantsLen = participants.length;\n        for(uint i=0;i<participantsLen;i++){\n            participants.pop();\n        }\n        uint ticketsLen = tickets.length;\n        for(uint i=0;i<ticketsLen;i++){\n            tickets.pop();\n        }\n        isOn=true;\n    }\n\n    // Declares the winner index of the lottery from shuffled array of the ticket numbers\n    function LotteryWinner() internal view returns(uint){\n        uint _modulus = tickets.length;\n        return uint(keccak256(abi.encodePacked(block.timestamp,msg.sender,randNonce))) % _modulus;\n    }\n \n    //shuffles the array of the ticket numbers \n    function shuffleTickets(uint[] memory _myArray) internal view returns(uint[] memory){\n        uint a = _myArray.length; \n        uint b = _myArray.length;\n        for(uint i = 0; i< b ; i++){\n            uint randNumber =(uint(keccak256      \n            (abi.encodePacked(block.timestamp,_myArray[i]))) % a)+1;\n            uint interim = _myArray[randNumber - 1];\n            _myArray[randNumber-1]= _myArray[a-1];\n            _myArray[a-1] = interim;\n            a = a-1;\n        }\n        uint256[] memory result;\n        result = _myArray;       \n        return result;        \n    }\n}",
  "sourcePath": "/home/empiric-18/Desktop/Blockchain Lottery/contracts/BlockchainLottery.sol",
  "compiler": {
    "name": "solc",
    "version": "0.8.14+commit.80d49f37.Emscripten.clang"
  },
  "schemaVersion": "3.4.7",
  "updatedAt": "2022-07-28T10:43:33.950Z",
  "devdoc": {
    "kind": "dev",
    "methods": {
      "owner()": {
        "details": "Returns the address of the current owner."
      },
      "renounceOwnership()": {
        "details": "Leaves the contract without owner. It will not be possible to call `onlyOwner` functions anymore. Can only be called by the current owner. NOTE: Renouncing ownership will leave the contract without an owner, thereby removing any functionality that is only available to the owner."
      },
      "transferOwnership(address)": {
        "details": "Transfers ownership of the contract to a new account (`newOwner`). Can only be called by the current owner."
      }
    },
    "version": 1
  },
  "userdoc": {
    "kind": "user",
    "methods": {},
    "version": 1
  }
}