{
  "contractName": "BlockchainLottery",
  "abi": [
    {
      "inputs": [],
      "stateMutability": "nonpayable",
      "type": "constructor"
    },
    {
      "anonymous": false,
      "inputs": [
        {
          "indexed": false,
          "internalType": "address",
          "name": "",
          "type": "address"
        }
      ],
      "name": "DepositeAmountEvent",
      "type": "event"
    },
    {
      "anonymous": false,
      "inputs": [
        {
          "indexed": true,
          "internalType": "address",
          "name": "previousOwner",
          "type": "address"
        },
        {
          "indexed": true,
          "internalType": "address",
          "name": "newOwner",
          "type": "address"
        }
      ],
      "name": "OwnershipTransferred",
      "type": "event"
    },
    {
      "anonymous": false,
      "inputs": [
        {
          "indexed": false,
          "internalType": "address",
          "name": "",
          "type": "address"
        },
        {
          "indexed": false,
          "internalType": "uint256",
          "name": "",
          "type": "uint256"
        }
      ],
      "name": "Winner",
      "type": "event"
    },
    {
      "inputs": [],
      "name": "USDTAddress",
      "outputs": [
        {
          "internalType": "address",
          "name": "",
          "type": "address"
        }
      ],
      "stateMutability": "view",
      "type": "function"
    },
    {
      "inputs": [
        {
          "internalType": "address",
          "name": "",
          "type": "address"
        }
      ],
      "name": "addressAndTickets",
      "outputs": [
        {
          "internalType": "uint256",
          "name": "",
          "type": "uint256"
        }
      ],
      "stateMutability": "view",
      "type": "function"
    },
    {
      "inputs": [],
      "name": "amount",
      "outputs": [
        {
          "internalType": "uint256",
          "name": "",
          "type": "uint256"
        }
      ],
      "stateMutability": "view",
      "type": "function"
    },
    {
      "inputs": [],
      "name": "fee",
      "outputs": [
        {
          "internalType": "uint256",
          "name": "",
          "type": "uint256"
        }
      ],
      "stateMutability": "view",
      "type": "function"
    },
    {
      "inputs": [],
      "name": "isOn",
      "outputs": [
        {
          "internalType": "bool",
          "name": "",
          "type": "bool"
        }
      ],
      "stateMutability": "view",
      "type": "function"
    },
    {
      "inputs": [],
      "name": "lastWinner",
      "outputs": [
        {
          "internalType": "address",
          "name": "",
          "type": "address"
        }
      ],
      "stateMutability": "view",
      "type": "function"
    },
    {
      "inputs": [],
      "name": "owner",
      "outputs": [
        {
          "internalType": "address",
          "name": "",
          "type": "address"
        }
      ],
      "stateMutability": "view",
      "type": "function"
    },
    {
      "inputs": [],
      "name": "renounceOwnership",
      "outputs": [],
      "stateMutability": "nonpayable",
      "type": "function"
    },
    {
      "inputs": [
        {
          "internalType": "uint256",
          "name": "",
          "type": "uint256"
        }
      ],
      "name": "tickets",
      "outputs": [
        {
          "internalType": "uint256",
          "name": "",
          "type": "uint256"
        }
      ],
      "stateMutability": "view",
      "type": "function"
    },
    {
      "inputs": [
        {
          "internalType": "uint256",
          "name": "",
          "type": "uint256"
        }
      ],
      "name": "ticketsAndAddress",
      "outputs": [
        {
          "internalType": "address",
          "name": "",
          "type": "address"
        }
      ],
      "stateMutability": "view",
      "type": "function"
    },
    {
      "inputs": [
        {
          "internalType": "address",
          "name": "newOwner",
          "type": "address"
        }
      ],
      "name": "transferOwnership",
      "outputs": [],
      "stateMutability": "nonpayable",
      "type": "function"
    },
    {
      "inputs": [
        {
          "internalType": "address",
          "name": "_newAddress",
          "type": "address"
        }
      ],
      "name": "updateUSDTAddress",
      "outputs": [],
      "stateMutability": "nonpayable",
      "type": "function"
    },
    {
      "inputs": [
        {
          "internalType": "uint256",
          "name": "_id",
          "type": "uint256"
        }
      ],
      "name": "getParticipants",
      "outputs": [
        {
          "internalType": "address",
          "name": "",
          "type": "address"
        }
      ],
      "stateMutability": "view",
      "type": "function"
    },
    {
      "inputs": [
        {
          "internalType": "uint256",
          "name": "_fee",
          "type": "uint256"
        }
      ],
      "name": "updateFee",
      "outputs": [],
      "stateMutability": "nonpayable",
      "type": "function"
    },
    {
      "inputs": [
        {
          "internalType": "uint256",
          "name": "_amount",
          "type": "uint256"
        }
      ],
      "name": "setDepositeAmount",
      "outputs": [],
      "stateMutability": "nonpayable",
      "type": "function"
    },
    {
      "inputs": [
        {
          "internalType": "uint256",
          "name": "_num",
          "type": "uint256"
        }
      ],
      "name": "setRandNounce",
      "outputs": [],
      "stateMutability": "nonpayable",
      "type": "function"
    },
    {
      "inputs": [
        {
          "internalType": "address",
          "name": "_account",
          "type": "address"
        }
      ],
      "name": "setFeeAccount",
      "outputs": [],
      "stateMutability": "nonpayable",
      "type": "function"
    },
    {
      "inputs": [],
      "name": "getAllParticipants",
      "outputs": [
        {
          "internalType": "address[]",
          "name": "",
          "type": "address[]"
        }
      ],
      "stateMutability": "view",
      "type": "function"
    },
    {
      "inputs": [],
      "name": "getAllTickets",
      "outputs": [
        {
          "internalType": "uint256[]",
          "name": "",
          "type": "uint256[]"
        }
      ],
      "stateMutability": "view",
      "type": "function"
    },
    {
      "inputs": [
        {
          "internalType": "address",
          "name": "_address",
          "type": "address"
        }
      ],
      "name": "getTicket",
      "outputs": [
        {
          "internalType": "uint256",
          "name": "",
          "type": "uint256"
        }
      ],
      "stateMutability": "view",
      "type": "function"
    },
    {
      "inputs": [
        {
          "internalType": "bool",
          "name": "_isOn",
          "type": "bool"
        }
      ],
      "name": "setIsOn",
      "outputs": [],
      "stateMutability": "nonpayable",
      "type": "function"
    },
    {
      "inputs": [
        {
          "internalType": "uint256",
          "name": "_amount",
          "type": "uint256"
        }
      ],
      "name": "depositeUSDT",
      "outputs": [],
      "stateMutability": "nonpayable",
      "type": "function"
    },
    {
      "inputs": [],
      "name": "assignTicket",
      "outputs": [],
      "stateMutability": "nonpayable",
      "type": "function"
    },
    {
      "inputs": [],
      "name": "getLottery",
      "outputs": [],
      "stateMutability": "nonpayable",
      "type": "function"
    }
  ],
  "bytecode": "0x60806040526001600060146101000a81548160ff0219169083151502179055506207a120600355600260045562a037a0600555600060065573c2132d05d31c914a87c6611c10748aeb04b58e8f600c60006101000a81548173ffffffffffffffffffffffffffffffffffffffff021916908373ffffffffffffffffffffffffffffffffffffffff1602179055503480156200009957600080fd5b50620000ba620000ae620000c060201b60201c565b620000c860201b60201c565b6200018c565b600033905090565b60008060009054906101000a900473ffffffffffffffffffffffffffffffffffffffff169050816000806101000a81548173ffffffffffffffffffffffffffffffffffffffff021916908373ffffffffffffffffffffffffffffffffffffffff1602179055508173ffffffffffffffffffffffffffffffffffffffff168173ffffffffffffffffffffffffffffffffffffffff167f8be0079c531659141344cd1fd0a4f28419497f9722a3daafe3b4186f6b6457e060405160405180910390a35050565b612697806200019c6000396000f3fe608060405234801561001057600080fd5b50600436106101585760003560e01c80638da5cb5b116100c3578063cbc2cce71161007c578063cbc2cce71461039f578063ddca3f43146103a9578063e41f8b53146103c7578063f2fde38b146103e3578063fe188184146103ff578063ff920c741461041d57610158565b80638da5cb5b146102f15780639012c4a81461030f578063966002481461032b578063aa8c217c14610335578063b0e1991214610353578063c1e3bd3e1461036f57610158565b80634b023cf8116101155780634b023cf81461023357806350b447121461024f578063715018a61461027f57806371e313bd1461028957806375d60372146102b95780637ebaf20a146102d557610158565b806303e96fe31461015d578063175bbecf1461017b578063195ec9ee146101995780633923aada146101b757806341779c00146101d35780634717dea914610203575b600080fd5b61016561043b565b6040516101729190611b89565b60405180910390f35b610183610493565b6040516101909190611bc6565b60405180910390f35b6101a16104a6565b6040516101ae9190611cd1565b60405180910390f35b6101d160048036038101906101cc9190611d24565b610534565b005b6101ed60048036038101906101e89190611d7d565b6105cd565b6040516101fa9190611db9565b60405180910390f35b61021d60048036038101906102189190611d7d565b6105e5565b60405161022a9190611db9565b60405180910390f35b61024d60048036038101906102489190611d7d565b61062e565b005b61026960048036038101906102649190611e00565b6106ee565b6040516102769190611db9565b60405180910390f35b610287610712565b005b6102a3600480360381019061029e9190611e00565b61079a565b6040516102b09190611e3c565b60405180910390f35b6102d360048036038101906102ce9190611d7d565b6107cd565b005b6102ef60048036038101906102ea9190611e00565b61091d565b005b6102f9610c1a565b6040516103069190611e3c565b60405180910390f35b61032960048036038101906103249190611e00565b610c43565b005b610333610d0d565b005b61033d610fc0565b60405161034a9190611db9565b60405180910390f35b61036d60048036038101906103689190611e00565b610fc6565b005b61038960048036038101906103849190611e00565b61104c565b6040516103969190611e3c565b60405180910390f35b6103a7611110565b005b6103b1611632565b6040516103be9190611db9565b60405180910390f35b6103e160048036038101906103dc9190611e00565b611638565b005b6103fd60048036038101906103f89190611d7d565b6116be565b005b6104076117b5565b6040516104149190611e3c565b60405180910390f35b6104256117db565b6040516104329190611e3c565b60405180910390f35b6060600a80548060200260200160405190810160405280929190818152602001828054801561048957602002820191906000526020600020905b815481526020019060010190808311610475575b5050505050905090565b600060149054906101000a900460ff1681565b6060600180548060200260200160405190810160405280929190818152602001828054801561052a57602002820191906000526020600020905b8160009054906101000a900473ffffffffffffffffffffffffffffffffffffffff1673ffffffffffffffffffffffffffffffffffffffff16815260200190600101908083116104e0575b5050505050905090565b61053c611801565b73ffffffffffffffffffffffffffffffffffffffff1661055a610c1a565b73ffffffffffffffffffffffffffffffffffffffff16146105b0576040517f08c379a00000000000000000000000000000000000000000000000000000000081526004016105a790611eb4565b60405180910390fd5b80600060146101000a81548160ff02191690831515021790555050565b60096020528060005260406000206000915090505481565b6000600960008373ffffffffffffffffffffffffffffffffffffffff1673ffffffffffffffffffffffffffffffffffffffff168152602001908152602001600020549050919050565b610636611801565b73ffffffffffffffffffffffffffffffffffffffff16610654610c1a565b73ffffffffffffffffffffffffffffffffffffffff16146106aa576040517f08c379a00000000000000000000000000000000000000000000000000000000081526004016106a190611eb4565b60405180910390fd5b80600760006101000a81548173ffffffffffffffffffffffffffffffffffffffff021916908373ffffffffffffffffffffffffffffffffffffffff16021790555050565b600a81815481106106fe57600080fd5b906000526020600020016000915090505481565b61071a611801565b73ffffffffffffffffffffffffffffffffffffffff16610738610c1a565b73ffffffffffffffffffffffffffffffffffffffff161461078e576040517f08c379a000000000000000000000000000000000000000000000000000000000815260040161078590611eb4565b60405180910390fd5b6107986000611809565b565b60086020528060005260406000206000915054906101000a900473ffffffffffffffffffffffffffffffffffffffff1681565b6107d5611801565b73ffffffffffffffffffffffffffffffffffffffff166107f3610c1a565b73ffffffffffffffffffffffffffffffffffffffff1614610849576040517f08c379a000000000000000000000000000000000000000000000000000000000815260040161084090611eb4565b60405180910390fd5b600c60009054906101000a900473ffffffffffffffffffffffffffffffffffffffff1673ffffffffffffffffffffffffffffffffffffffff168173ffffffffffffffffffffffffffffffffffffffff16036108d9576040517f08c379a00000000000000000000000000000000000000000000000000000000081526004016108d090611f20565b60405180910390fd5b80600c60006101000a81548173ffffffffffffffffffffffffffffffffffffffff021916908373ffffffffffffffffffffffffffffffffffffffff16021790555050565b600060149054906101000a900460ff1661096c576040517f08c379a000000000000000000000000000000000000000000000000000000000815260040161096390611f8c565b60405180910390fd5b60055481146109b0576040517f08c379a00000000000000000000000000000000000000000000000000000000081526004016109a79061201e565b60405180910390fd5b600c60009054906101000a900473ffffffffffffffffffffffffffffffffffffffff1673ffffffffffffffffffffffffffffffffffffffff166323b872dd33600760009054906101000a900473ffffffffffffffffffffffffffffffffffffffff166003546040518463ffffffff1660e01b8152600401610a339392919061203e565b6020604051808303816000875af1158015610a52573d6000803e3d6000fd5b505050506040513d601f19601f82011682018060405250810190610a76919061208a565b50600c60009054906101000a900473ffffffffffffffffffffffffffffffffffffffff1673ffffffffffffffffffffffffffffffffffffffff166323b872dd333060035485610ac591906120e6565b6040518463ffffffff1660e01b8152600401610ae39392919061203e565b6020604051808303816000875af1158015610b02573d6000803e3d6000fd5b505050506040513d601f19601f82011682018060405250810190610b26919061208a565b506001339080600181540180825580915050600190039060005260206000200160009091909190916101000a81548173ffffffffffffffffffffffffffffffffffffffff021916908373ffffffffffffffffffffffffffffffffffffffff16021790555080600b60003373ffffffffffffffffffffffffffffffffffffffff1673ffffffffffffffffffffffffffffffffffffffff1681526020019081526020016000206000828254610bd9919061211a565b925050819055507f4f7d5e68462c76e2693e9f56aaa9e9dec62a0558f74233ccc40145e2819dabb133604051610c0f9190611e3c565b60405180910390a150565b60008060009054906101000a900473ffffffffffffffffffffffffffffffffffffffff16905090565b610c4b611801565b73ffffffffffffffffffffffffffffffffffffffff16610c69610c1a565b73ffffffffffffffffffffffffffffffffffffffff1614610cbf576040517f08c379a0000000000000000000000000000000000000000000000000000000008152600401610cb690611eb4565b60405180910390fd5b6005548110610d03576040517f08c379a0000000000000000000000000000000000000000000000000000000008152600401610cfa906121bc565b60405180910390fd5b8060038190555050565b610d15611801565b73ffffffffffffffffffffffffffffffffffffffff16610d33610c1a565b73ffffffffffffffffffffffffffffffffffffffff1614610d89576040517f08c379a0000000000000000000000000000000000000000000000000000000008152600401610d8090611eb4565b60405180910390fd5b600060149054906101000a900460ff16610dd8576040517f08c379a0000000000000000000000000000000000000000000000000000000008152600401610dcf90612228565b60405180910390fd5b600060018054905003610e20576040517f08c379a0000000000000000000000000000000000000000000000000000000008152600401610e1790612294565b60405180910390fd5b60005b600180549050811015610fa3576000610e3a6118cd565b905060018281548110610e5057610e4f6122b4565b5b9060005260206000200160009054906101000a900473ffffffffffffffffffffffffffffffffffffffff166008600083815260200190815260200160002060006101000a81548173ffffffffffffffffffffffffffffffffffffffff021916908373ffffffffffffffffffffffffffffffffffffffff160217905550806009600060018581548110610ee557610ee46122b4565b5b9060005260206000200160009054906101000a900473ffffffffffffffffffffffffffffffffffffffff1673ffffffffffffffffffffffffffffffffffffffff1673ffffffffffffffffffffffffffffffffffffffff16815260200190815260200160002081905550600a81908060018154018082558091505060019003906000526020600020016000909190919091505560046000815480929190610f8a906122e3565b9190505550508080610f9b906122e3565b915050610e23565b5060008060146101000a81548160ff021916908315150217905550565b60055481565b610fce611801565b73ffffffffffffffffffffffffffffffffffffffff16610fec610c1a565b73ffffffffffffffffffffffffffffffffffffffff1614611042576040517f08c379a000000000000000000000000000000000000000000000000000000000815260040161103990611eb4565b60405180910390fd5b8060058190555050565b6000611056611801565b73ffffffffffffffffffffffffffffffffffffffff16611074610c1a565b73ffffffffffffffffffffffffffffffffffffffff16146110ca576040517f08c379a00000000000000000000000000000000000000000000000000000000081526004016110c190611eb4565b60405180910390fd5b600182815481106110de576110dd6122b4565b5b9060005260206000200160009054906101000a900473ffffffffffffffffffffffffffffffffffffffff169050919050565b611118611801565b73ffffffffffffffffffffffffffffffffffffffff16611136610c1a565b73ffffffffffffffffffffffffffffffffffffffff161461118c576040517f08c379a000000000000000000000000000000000000000000000000000000000815260040161118390611eb4565b60405180910390fd5b60001515600060149054906101000a900460ff161515146111e2576040517f08c379a00000000000000000000000000000000000000000000000000000000081526004016111d990612377565b60405180910390fd5b6000600a805490500361122a576040517f08c379a0000000000000000000000000000000000000000000000000000000008152600401611221906123e3565b60405180910390fd5b6000611285600a80548060200260200160405190810160405280929190818152602001828054801561127b57602002820191906000526020600020905b815481526020019060010190808311611267575b505050505061191d565b90506000611291611a75565b90506000600c60009054906101000a900473ffffffffffffffffffffffffffffffffffffffff1673ffffffffffffffffffffffffffffffffffffffff166370a08231306040518263ffffffff1660e01b81526004016112f09190611e3c565b602060405180830381865afa15801561130d573d6000803e3d6000fd5b505050506040513d601f19601f820116820180604052508101906113319190612418565b9050600c60009054906101000a900473ffffffffffffffffffffffffffffffffffffffff1673ffffffffffffffffffffffffffffffffffffffff1663a9059cbb60086000868681518110611388576113876122b4565b5b6020026020010151815260200190815260200160002060009054906101000a900473ffffffffffffffffffffffffffffffffffffffff16836040518363ffffffff1660e01b81526004016113dd929190612445565b6020604051808303816000875af11580156113fc573d6000803e3d6000fd5b505050506040513d601f19601f82011682018060405250810190611420919061208a565b5060086000848481518110611438576114376122b4565b5b6020026020010151815260200190815260200160002060009054906101000a900473ffffffffffffffffffffffffffffffffffffffff16600260006101000a81548173ffffffffffffffffffffffffffffffffffffffff021916908373ffffffffffffffffffffffffffffffffffffffff1602179055507f9c2270628a9b29d30ae96b6c4c14ed646ee134febdce38a5b77f2bde9cea2e20600860008585815181106114e7576114e66122b4565b5b6020026020010151815260200190815260200160002060009054906101000a900473ffffffffffffffffffffffffffffffffffffffff16848481518110611531576115306122b4565b5b6020026020010151604051611547929190612445565b60405180910390a16000600180549050905060005b818110156115be5760018054806115765761157561246e565b5b6001900381819060005260206000200160006101000a81549073ffffffffffffffffffffffffffffffffffffffff0219169055905580806115b6906122e3565b91505061155c565b506000600a80549050905060005b8181101561160f57600a8054806115e6576115e561246e565b5b600190038181906000526020600020016000905590558080611607906122e3565b9150506115cc565b506001600060146101000a81548160ff0219169083151502179055505050505050565b60035481565b611640611801565b73ffffffffffffffffffffffffffffffffffffffff1661165e610c1a565b73ffffffffffffffffffffffffffffffffffffffff16146116b4576040517f08c379a00000000000000000000000000000000000000000000000000000000081526004016116ab90611eb4565b60405180910390fd5b8060048190555050565b6116c6611801565b73ffffffffffffffffffffffffffffffffffffffff166116e4610c1a565b73ffffffffffffffffffffffffffffffffffffffff161461173a576040517f08c379a000000000000000000000000000000000000000000000000000000000815260040161173190611eb4565b60405180910390fd5b600073ffffffffffffffffffffffffffffffffffffffff168173ffffffffffffffffffffffffffffffffffffffff16036117a9576040517f08c379a00000000000000000000000000000000000000000000000000000000081526004016117a09061250f565b60405180910390fd5b6117b281611809565b50565b600260009054906101000a900473ffffffffffffffffffffffffffffffffffffffff1681565b600c60009054906101000a900473ffffffffffffffffffffffffffffffffffffffff1681565b600033905090565b60008060009054906101000a900473ffffffffffffffffffffffffffffffffffffffff169050816000806101000a81548173ffffffffffffffffffffffffffffffffffffffff021916908373ffffffffffffffffffffffffffffffffffffffff1602179055508173ffffffffffffffffffffffffffffffffffffffff168173ffffffffffffffffffffffffffffffffffffffff167f8be0079c531659141344cd1fd0a4f28419497f9722a3daafe3b4186f6b6457e060405160405180910390a35050565b600080620186a0905060008142336004546040516020016118f093929190612598565b6040516020818303038152906040528051906020012060001c6119139190612604565b9050809250505090565b606060008251905060008351905060005b81811015611a645760006001844288858151811061194f5761194e6122b4565b5b6020026020010151604051602001611968929190612635565b6040516020818303038152906040528051906020012060001c61198b9190612604565b611995919061211a565b90506000866001836119a791906120e6565b815181106119b8576119b76122b4565b5b60200260200101519050866001866119d091906120e6565b815181106119e1576119e06122b4565b5b6020026020010151876001846119f791906120e6565b81518110611a0857611a076122b4565b5b6020026020010181815250508087600187611a2391906120e6565b81518110611a3457611a336122b4565b5b602002602001018181525050600185611a4d91906120e6565b945050508080611a5c906122e3565b91505061192e565b506060849050809350505050919050565b600080600a805490509050804233600454604051602001611a9893929190612598565b6040516020818303038152906040528051906020012060001c611abb9190612604565b91505090565b600081519050919050565b600082825260208201905092915050565b6000819050602082019050919050565b6000819050919050565b611b0081611aed565b82525050565b6000611b128383611af7565b60208301905092915050565b6000602082019050919050565b6000611b3682611ac1565b611b408185611acc565b9350611b4b83611add565b8060005b83811015611b7c578151611b638882611b06565b9750611b6e83611b1e565b925050600181019050611b4f565b5085935050505092915050565b60006020820190508181036000830152611ba38184611b2b565b905092915050565b60008115159050919050565b611bc081611bab565b82525050565b6000602082019050611bdb6000830184611bb7565b92915050565b600081519050919050565b600082825260208201905092915050565b6000819050602082019050919050565b600073ffffffffffffffffffffffffffffffffffffffff82169050919050565b6000611c3882611c0d565b9050919050565b611c4881611c2d565b82525050565b6000611c5a8383611c3f565b60208301905092915050565b6000602082019050919050565b6000611c7e82611be1565b611c888185611bec565b9350611c9383611bfd565b8060005b83811015611cc4578151611cab8882611c4e565b9750611cb683611c66565b925050600181019050611c97565b5085935050505092915050565b60006020820190508181036000830152611ceb8184611c73565b905092915050565b600080fd5b611d0181611bab565b8114611d0c57600080fd5b50565b600081359050611d1e81611cf8565b92915050565b600060208284031215611d3a57611d39611cf3565b5b6000611d4884828501611d0f565b91505092915050565b611d5a81611c2d565b8114611d6557600080fd5b50565b600081359050611d7781611d51565b92915050565b600060208284031215611d9357611d92611cf3565b5b6000611da184828501611d68565b91505092915050565b611db381611aed565b82525050565b6000602082019050611dce6000830184611daa565b92915050565b611ddd81611aed565b8114611de857600080fd5b50565b600081359050611dfa81611dd4565b92915050565b600060208284031215611e1657611e15611cf3565b5b6000611e2484828501611deb565b91505092915050565b611e3681611c2d565b82525050565b6000602082019050611e516000830184611e2d565b92915050565b600082825260208201905092915050565b7f4f776e61626c653a2063616c6c6572206973206e6f7420746865206f776e6572600082015250565b6000611e9e602083611e57565b9150611ea982611e68565b602082019050919050565b60006020820190508181036000830152611ecd81611e91565b9050919050565b7f4e455720414444524553532043414e204e4f54204245204f4c44204f4e450000600082015250565b6000611f0a601e83611e57565b9150611f1582611ed4565b602082019050919050565b60006020820190508181036000830152611f3981611efd565b9050919050565b7f4465706f736974657320617265206e6f7720636c6f7365640000000000000000600082015250565b6000611f76601883611e57565b9150611f8182611f40565b602082019050919050565b60006020820190508181036000830152611fa581611f69565b9050919050565b7f506c6561736520656e746572207468652073706563696669656420616d6f756e60008201527f74206f6620555344540000000000000000000000000000000000000000000000602082015250565b6000612008602983611e57565b915061201382611fac565b604082019050919050565b6000602082019050818103600083015261203781611ffb565b9050919050565b60006060820190506120536000830186611e2d565b6120606020830185611e2d565b61206d6040830184611daa565b949350505050565b60008151905061208481611cf8565b92915050565b6000602082840312156120a05761209f611cf3565b5b60006120ae84828501612075565b91505092915050565b7f4e487b7100000000000000000000000000000000000000000000000000000000600052601160045260246000fd5b60006120f182611aed565b91506120fc83611aed565b92508282101561210f5761210e6120b7565b5b828203905092915050565b600061212582611aed565b915061213083611aed565b9250827fffffffffffffffffffffffffffffffffffffffffffffffffffffffffffffffff03821115612165576121646120b7565b5b828201905092915050565b7f4665652073686f756c64206265206c657373207468656e20616d6f756e740000600082015250565b60006121a6601e83611e57565b91506121b182612170565b602082019050919050565b600060208201905081810360008301526121d581612199565b9050919050565b7f69734f6e207265717569726520746f2054727565000000000000000000000000600082015250565b6000612212601483611e57565b915061221d826121dc565b602082019050919050565b6000602082019050818103600083015261224181612205565b9050919050565b7f4e6f207061727469636970616e74730000000000000000000000000000000000600082015250565b600061227e600f83611e57565b915061228982612248565b602082019050919050565b600060208201905081810360008301526122ad81612271565b9050919050565b7f4e487b7100000000000000000000000000000000000000000000000000000000600052603260045260246000fd5b60006122ee82611aed565b91507fffffffffffffffffffffffffffffffffffffffffffffffffffffffffffffffff82036123205761231f6120b7565b5b600182019050919050565b7f69734f732073686f756c64206e652066616c7365000000000000000000000000600082015250565b6000612361601483611e57565b915061236c8261232b565b602082019050919050565b6000602082019050818103600083015261239081612354565b9050919050565b7f4e6f207469636b65747300000000000000000000000000000000000000000000600082015250565b60006123cd600a83611e57565b91506123d882612397565b602082019050919050565b600060208201905081810360008301526123fc816123c0565b9050919050565b60008151905061241281611dd4565b92915050565b60006020828403121561242e5761242d611cf3565b5b600061243c84828501612403565b91505092915050565b600060408201905061245a6000830185611e2d565b6124676020830184611daa565b9392505050565b7f4e487b7100000000000000000000000000000000000000000000000000000000600052603160045260246000fd5b7f4f776e61626c653a206e6577206f776e657220697320746865207a65726f206160008201527f6464726573730000000000000000000000000000000000000000000000000000602082015250565b60006124f9602683611e57565b91506125048261249d565b604082019050919050565b60006020820190508181036000830152612528816124ec565b9050919050565b6000819050919050565b61254a61254582611aed565b61252f565b82525050565b60008160601b9050919050565b600061256882612550565b9050919050565b600061257a8261255d565b9050919050565b61259261258d82611c2d565b61256f565b82525050565b60006125a48286612539565b6020820191506125b48285612581565b6014820191506125c48284612539565b602082019150819050949350505050565b7f4e487b7100000000000000000000000000000000000000000000000000000000600052601260045260246000fd5b600061260f82611aed565b915061261a83611aed565b92508261262a576126296125d5565b5b828206905092915050565b60006126418285612539565b6020820191506126518284612539565b602082019150819050939250505056fea26469706673582212203479b608078dcf80bd80887aa6dbc128081747497e65a938fead70a03ca699a064736f6c634300080e0033",
  "immutableReferences": {},
  "source": "/**\n *Submitted for verification at polygonscan.com on 2022-08-02\n*/\n\n//SPDX-License-Identifier: MIT\n\n// File: @openzeppelin/contracts/utils/Context.sol\n\n\n// OpenZeppelin Contracts v4.4.1 (utils/Context.sol)\n\npragma solidity ^0.8.0;\n\n/**\n * @dev Provides information about the current execution context, including the\n * sender of the transaction and its data. While these are generally available\n * via msg.sender and msg.data, they should not be accessed in such a direct\n * manner, since when dealing with meta-transactions the account sending and\n * paying for execution may not be the actual sender (as far as an application\n * is concerned).\n *\n * This contract is only required for intermediate, library-like contracts.\n */\nabstract contract Context {\n    function _msgSender() internal view virtual returns (address) {\n        return msg.sender;\n    }\n\n    function _msgData() internal view virtual returns (bytes calldata) {\n        return msg.data;\n    }\n}\n\n// File: @openzeppelin/contracts/access/Ownable.sol\n\n\n// OpenZeppelin Contracts v4.4.1 (access/Ownable.sol)\n\npragma solidity ^0.8.0;\n\n\n/**\n * @dev Contract module which provides a basic access control mechanism, where\n * there is an account (an owner) that can be granted exclusive access to\n * specific functions.\n *\n * By default, the owner account will be the one that deploys the contract. This\n * can later be changed with {transferOwnership}.\n *\n * This module is used through inheritance. It will make available the modifier\n * `onlyOwner`, which can be applied to your functions to restrict their use to\n * the owner.\n */\nabstract contract Ownable is Context {\n    address private _owner;\n\n    event OwnershipTransferred(address indexed previousOwner, address indexed newOwner);\n\n    /**\n     * @dev Initializes the contract setting the deployer as the initial owner.\n     */\n    constructor() {\n        _transferOwnership(_msgSender());\n    }\n\n    /**\n     * @dev Returns the address of the current owner.\n     */\n    function owner() public view virtual returns (address) {\n        return _owner;\n    }\n\n    /**\n     * @dev Throws if called by any account other than the owner.\n     */\n    modifier onlyOwner() {\n        require(owner() == _msgSender(), \"Ownable: caller is not the owner\");\n        _;\n    }\n\n    /**\n     * @dev Leaves the contract without owner. It will not be possible to call\n     * `onlyOwner` functions anymore. Can only be called by the current owner.\n     *\n     * NOTE: Renouncing ownership will leave the contract without an owner,\n     * thereby removing any functionality that is only available to the owner.\n     */\n    function renounceOwnership() public virtual onlyOwner {\n        _transferOwnership(address(0));\n    }\n\n    /**\n     * @dev Transfers ownership of the contract to a new account (`newOwner`).\n     * Can only be called by the current owner.\n     */\n    function transferOwnership(address newOwner) public virtual onlyOwner {\n        require(newOwner != address(0), \"Ownable: new owner is the zero address\");\n        _transferOwnership(newOwner);\n    }\n\n    /**\n     * @dev Transfers ownership of the contract to a new account (`newOwner`).\n     * Internal function without access restriction.\n     */\n    function _transferOwnership(address newOwner) internal virtual {\n        address oldOwner = _owner;\n        _owner = newOwner;\n        emit OwnershipTransferred(oldOwner, newOwner);\n    }\n}\n\n// File: @openzeppelin/contracts/token/ERC20/IERC20.sol\n\n\n// OpenZeppelin Contracts (last updated v4.6.0) (token/ERC20/IERC20.sol)\n\npragma solidity ^0.8.0;\n\n/**\n * @dev Interface of the ERC20 standard as defined in the EIP.\n */\ninterface IERC20 {\n    /**\n     * @dev Emitted when `value` tokens are moved from one account (`from`) to\n     * another (`to`).\n     *\n     * Note that `value` may be zero.\n     */\n    event Transfer(address indexed from, address indexed to, uint256 value);\n\n    /**\n     * @dev Emitted when the allowance of a `spender` for an `owner` is set by\n     * a call to {approve}. `value` is the new allowance.\n     */\n    event Approval(address indexed owner, address indexed spender, uint256 value);\n\n    /**\n     * @dev Returns the amount of tokens in existence.\n     */\n    function totalSupply() external view returns (uint256);\n\n    /**\n     * @dev Returns the amount of tokens owned by `account`.\n     */\n    function balanceOf(address account) external view returns (uint256);\n\n    /**\n     * @dev Moves `amount` tokens from the caller's account to `to`.\n     *\n     * Returns a boolean value indicating whether the operation succeeded.\n     *\n     * Emits a {Transfer} event.\n     */\n    function transfer(address to, uint256 amount) external returns (bool);\n\n    /**\n     * @dev Returns the remaining number of tokens that `spender` will be\n     * allowed to spend on behalf of `owner` through {transferFrom}. This is\n     * zero by default.\n     *\n     * This value changes when {approve} or {transferFrom} are called.\n     */\n    function allowance(address owner, address spender) external view returns (uint256);\n\n    /**\n     * @dev Sets `amount` as the allowance of `spender` over the caller's tokens.\n     *\n     * Returns a boolean value indicating whether the operation succeeded.\n     *\n     * IMPORTANT: Beware that changing an allowance with this method brings the risk\n     * that someone may use both the old and the new allowance by unfortunate\n     * transaction ordering. One possible solution to mitigate this race\n     * condition is to first reduce the spender's allowance to 0 and set the\n     * desired value afterwards:\n     * https://github.com/ethereum/EIPs/issues/20#issuecomment-263524729\n     *\n     * Emits an {Approval} event.\n     */\n    function approve(address spender, uint256 amount) external returns (bool);\n\n    /**\n     * @dev Moves `amount` tokens from `from` to `to` using the\n     * allowance mechanism. `amount` is then deducted from the caller's\n     * allowance.\n     *\n     * Returns a boolean value indicating whether the operation succeeded.\n     *\n     * Emits a {Transfer} event.\n     */\n    function transferFrom(\n        address from,\n        address to,\n        uint256 amount\n    ) external returns (bool);\n}\n\n// File: BlockchainLottery.sol\n\n\npragma solidity ^0.8.0;\n\n\n\ncontract BlockchainLottery is Ownable{\n    bool public isOn = true;\n    address[] participants;\n    address public lastWinner;\n    uint public fee = 500000;\n    uint randNonce=2;\n    uint public amount = 10500000;\n    uint lotteryNumberCounter=0;\n    address feeAccount;\n    mapping(uint=>address) public ticketsAndAddress;\n    mapping(address=>uint) public addressAndTickets;\n    uint[] public tickets;\n    mapping(address=>uint) amountOfParticipants;\n    address public USDTAddress = 0xc2132D05D31c914a87C6611C10748AEb04B58e8F; //USDT Address on Polygon\n    event Winner(address,uint);\n    event DepositeAmountEvent(address);\n    constructor(){\n        \n    }\n    function updateUSDTAddress(address _newAddress) public onlyOwner{\n        require(_newAddress!=USDTAddress,\"NEW ADDRESS CAN NOT BE OLD ONE\");\n        USDTAddress = _newAddress;\n    }\n    function getParticipants(uint _id) view public onlyOwner returns(address){\n        return participants[_id];\n    }\n    function updateFee(uint _fee) public onlyOwner{\n        require(_fee<amount,\"Fee should be less then amount\");\n        fee = _fee;\n    }\n    function setDepositeAmount(uint _amount) public onlyOwner{\n        amount = _amount;\n    }\n    function setRandNounce(uint _num) public onlyOwner {\n        randNonce=_num;\n    }\n    function setFeeAccount(address _account) public onlyOwner {\n        feeAccount = _account;\n    }\n\n    function getAllParticipants() view public returns(address[] memory){\n        return participants;\n    }\n    function getAllTickets() public view returns(uint[] memory){\n        return tickets;\n    }\n    function getTicket(address _address) public view returns(uint){\n        return addressAndTickets[_address];\n    }\n    \n    function setIsOn(bool _isOn) public onlyOwner{\n        isOn=_isOn;\n    }\n\n\n    //participants can deposite the amount of USDT\n    function depositeUSDT(uint _amount) public {\n        require(isOn,\"Deposites are now closed\");\n        require(_amount==amount,\"Please enter the specified amount of USDT\");\n        IERC20(USDTAddress).transferFrom(msg.sender, feeAccount, fee);\n        IERC20(USDTAddress).transferFrom(msg.sender, address(this), _amount-fee);\n        participants.push(msg.sender);\n        amountOfParticipants[msg.sender]+=_amount;\n        emit DepositeAmountEvent(msg.sender);\n    }\n\n\n\n    //assign all the participants a random ticket number\n    function assignTicket() public onlyOwner {\n        require(isOn, \"isOn require to True\");\n        require(participants.length!=0,\"No participants\");\n        for(uint i=0;i<participants.length;i++){\n            uint ticket = ticketGenerator();\n            ticketsAndAddress[ticket] = participants[i];\n            addressAndTickets[participants[i]] = ticket;\n            tickets.push(ticket);\n            randNonce++;\n        }\n        isOn=false;\n    }\n\n    // generates the lottery tickets\n    function ticketGenerator() internal view returns(uint){\n        uint _modulus = 100000;\n        uint ticket = uint(keccak256(abi.encodePacked(block.timestamp,msg.sender,randNonce))) % _modulus;\n        return ticket;\n    }\n\n    // opens the lottery for the user \n    function getLottery() public onlyOwner{\n        require(isOn==false,\"isOs should ne false\");\n        require(tickets.length!=0,\"No tickets\");\n        uint[] memory shuffledTickets = shuffleTickets(tickets);\n        uint WinnerId = LotteryWinner();\n        uint balance = IERC20(USDTAddress).balanceOf(address(this));\n        IERC20(USDTAddress).transfer(ticketsAndAddress[shuffledTickets[WinnerId]],balance);\n        lastWinner = ticketsAndAddress[shuffledTickets[WinnerId]];\n        emit Winner(ticketsAndAddress[shuffledTickets[WinnerId]],shuffledTickets[WinnerId]);\n        uint participantsLen = participants.length;\n        for(uint i=0;i<participantsLen;i++){\n            participants.pop();\n        }\n        uint ticketsLen = tickets.length;\n        for(uint i=0;i<ticketsLen;i++){\n            tickets.pop();\n        }\n        isOn=true;\n    }\n\n    // Declares the winner index of the lottery from shuffled array of the ticket numbers\n    function LotteryWinner() internal view returns(uint){\n        uint _modulus = tickets.length;\n        return uint(keccak256(abi.encodePacked(block.timestamp,msg.sender,randNonce))) % _modulus;\n    }\n \n    //shuffles the array of the ticket numbers \n    function shuffleTickets(uint[] memory _myArray) internal view returns(uint[] memory){\n        uint a = _myArray.length; \n        uint b = _myArray.length;\n        for(uint i = 0; i< b ; i++){\n            uint randNumber =(uint(keccak256      \n            (abi.encodePacked(block.timestamp,_myArray[i]))) % a)+1;\n            uint interim = _myArray[randNumber - 1];\n            _myArray[randNumber-1]= _myArray[a-1];\n            _myArray[a-1] = interim;\n            a = a-1;\n        }\n        uint256[] memory result;\n        result = _myArray;       \n        return result;        \n    }\n}",
  "sourcePath": "/home/empiric-18/Desktop/Lottery/contracts/BlockchainLottery.sol",
  "compiler": {
    "name": "solc",
    "version": "0.8.14+commit.80d49f37.Emscripten.clang"
  },
  "schemaVersion": "3.4.7",
  "updatedAt": "2022-08-02T06:16:43.689Z",
  "devdoc": {
    "kind": "dev",
    "methods": {
      "owner()": {
        "details": "Returns the address of the current owner."
      },
      "renounceOwnership()": {
        "details": "Leaves the contract without owner. It will not be possible to call `onlyOwner` functions anymore. Can only be called by the current owner. NOTE: Renouncing ownership will leave the contract without an owner, thereby removing any functionality that is only available to the owner."
      },
      "transferOwnership(address)": {
        "details": "Transfers ownership of the contract to a new account (`newOwner`). Can only be called by the current owner."
      }
    },
    "version": 1
  },
  "userdoc": {
    "kind": "user",
    "methods": {},
    "version": 1
  }
}